{
  "contractName": "TokenFarm",
  "abi": [
    {
      "inputs": [
        {
          "internalType": "contract DaiToken",
          "name": "_daiToken",
          "type": "address"
        },
        {
          "internalType": "contract DAppToken",
          "name": "_dAppToken",
          "type": "address"
        }
      ],
      "payable": false,
      "stateMutability": "nonpayable",
      "type": "constructor"
    },
    {
      "constant": true,
      "inputs": [],
      "name": "dAppToken",
      "outputs": [
        {
          "internalType": "contract DAppToken",
          "name": "",
          "type": "address"
        }
      ],
      "payable": false,
      "stateMutability": "view",
      "type": "function"
    },
    {
      "constant": true,
      "inputs": [],
      "name": "daiToken",
      "outputs": [
        {
          "internalType": "contract DaiToken",
          "name": "",
          "type": "address"
        }
      ],
      "payable": false,
      "stateMutability": "view",
      "type": "function"
    },
    {
      "constant": true,
      "inputs": [],
      "name": "deployer",
      "outputs": [
        {
          "internalType": "address",
          "name": "",
          "type": "address"
        }
      ],
      "payable": false,
      "stateMutability": "view",
      "type": "function"
    },
    {
      "constant": true,
      "inputs": [
        {
          "internalType": "address",
          "name": "",
          "type": "address"
        }
      ],
      "name": "hasStaked",
      "outputs": [
        {
          "internalType": "bool",
          "name": "",
          "type": "bool"
        }
      ],
      "payable": false,
      "stateMutability": "view",
      "type": "function"
    },
    {
      "constant": true,
      "inputs": [
        {
          "internalType": "address",
          "name": "",
          "type": "address"
        }
      ],
      "name": "isStaking",
      "outputs": [
        {
          "internalType": "bool",
          "name": "",
          "type": "bool"
        }
      ],
      "payable": false,
      "stateMutability": "view",
      "type": "function"
    },
    {
      "constant": true,
      "inputs": [],
      "name": "name",
      "outputs": [
        {
          "internalType": "string",
          "name": "",
          "type": "string"
        }
      ],
      "payable": false,
      "stateMutability": "view",
      "type": "function"
    },
    {
      "constant": true,
      "inputs": [
        {
          "internalType": "address",
          "name": "",
          "type": "address"
        }
      ],
      "name": "stakingBalance",
      "outputs": [
        {
          "internalType": "uint256",
          "name": "",
          "type": "uint256"
        }
      ],
      "payable": false,
      "stateMutability": "view",
      "type": "function"
    },
    {
      "constant": true,
      "inputs": [
        {
          "internalType": "uint256",
          "name": "",
          "type": "uint256"
        }
      ],
      "name": "stakingInvestors",
      "outputs": [
        {
          "internalType": "address",
          "name": "",
          "type": "address"
        }
      ],
      "payable": false,
      "stateMutability": "view",
      "type": "function"
    },
    {
      "constant": false,
      "inputs": [
        {
          "internalType": "uint256",
          "name": "_amount",
          "type": "uint256"
        }
      ],
      "name": "stakeTokens",
      "outputs": [],
      "payable": false,
      "stateMutability": "nonpayable",
      "type": "function"
    },
    {
      "constant": false,
      "inputs": [],
      "name": "issueTokens",
      "outputs": [],
      "payable": false,
      "stateMutability": "nonpayable",
      "type": "function"
    },
    {
      "constant": false,
      "inputs": [],
      "name": "unstakeTokens",
      "outputs": [],
      "payable": false,
      "stateMutability": "nonpayable",
      "type": "function"
    }
  ],
  "bytecode": "0x60806040526040518060400160405280600f81526020017f4441707020546f6b656e204661726d00000000000000000000000000000000008152506000908051906020019061004f929190610164565b5034801561005c57600080fd5b50604051610fa9380380610fa98339818101604052604081101561007f57600080fd5b81019080805190602001909291908051906020019092919050505081600360006101000a81548173ffffffffffffffffffffffffffffffffffffffff021916908373ffffffffffffffffffffffffffffffffffffffff16021790555080600260006101000a81548173ffffffffffffffffffffffffffffffffffffffff021916908373ffffffffffffffffffffffffffffffffffffffff16021790555033600160006101000a81548173ffffffffffffffffffffffffffffffffffffffff021916908373ffffffffffffffffffffffffffffffffffffffff1602179055505050610209565b828054600181600116156101000203166002900490600052602060002090601f016020900481019282601f106101a557805160ff19168380011785556101d3565b828001600101855582156101d3579182015b828111156101d25782518255916020019190600101906101b7565b5b5090506101e091906101e4565b5090565b61020691905b808211156102025760008160009055506001016101ea565b5090565b90565b610d91806102186000396000f3fe608060405234801561001057600080fd5b50600436106100a95760003560e01c80637547c7a3116100715780637547c7a31461025d578063a5ce413b1461028b578063be22f54614610295578063c93c8f34146102df578063d5f394881461033b578063eaf2c47714610385576100a9565b806306fdde03146100ae57806345bc78ab1461013157806360ab5852146101895780636f49712b1461019357806370a0ffc6146101ef575b600080fd5b6100b66103cf565b6040518080602001828103825283818151815260200191508051906020019080838360005b838110156100f65780820151818401526020810190506100db565b50505050905090810190601f1680156101235780820380516001836020036101000a031916815260200191505b509250505060405180910390f35b6101736004803603602081101561014757600080fd5b81019080803573ffffffffffffffffffffffffffffffffffffffff16906020019092919050505061046d565b6040518082815260200191505060405180910390f35b610191610485565b005b6101d5600480360360208110156101a957600080fd5b81019080803573ffffffffffffffffffffffffffffffffffffffff1690602001909291905050506106dc565b604051808215151515815260200191505060405180910390f35b61021b6004803603602081101561020557600080fd5b81019080803590602001909291905050506106fc565b604051808273ffffffffffffffffffffffffffffffffffffffff1673ffffffffffffffffffffffffffffffffffffffff16815260200191505060405180910390f35b6102896004803603602081101561027357600080fd5b8101908080359060200190929190505050610738565b005b610293610a85565b005b61029d610cca565b604051808273ffffffffffffffffffffffffffffffffffffffff1673ffffffffffffffffffffffffffffffffffffffff16815260200191505060405180910390f35b610321600480360360208110156102f557600080fd5b81019080803573ffffffffffffffffffffffffffffffffffffffff169060200190929190505050610cf0565b604051808215151515815260200191505060405180910390f35b610343610d10565b604051808273ffffffffffffffffffffffffffffffffffffffff1673ffffffffffffffffffffffffffffffffffffffff16815260200191505060405180910390f35b61038d610d36565b604051808273ffffffffffffffffffffffffffffffffffffffff1673ffffffffffffffffffffffffffffffffffffffff16815260200191505060405180910390f35b60008054600181600116156101000203166002900480601f0160208091040260200160405190810160405280929190818152602001828054600181600116156101000203166002900480156104655780601f1061043a57610100808354040283529160200191610465565b820191906000526020600020905b81548152906001019060200180831161044857829003601f168201915b505050505081565b60046020528060005260406000206000915090505481565b600160009054906101000a900473ffffffffffffffffffffffffffffffffffffffff1673ffffffffffffffffffffffffffffffffffffffff163373ffffffffffffffffffffffffffffffffffffffff1614610548576040517f08c379a000000000000000000000000000000000000000000000000000000000815260040180806020018281038252601b8152602001807f43616c6c6572206d75737420626520746865204465706c6f796572000000000081525060200191505060405180910390fd5b60008090505b6007805490508110156106d95760006007828154811061056a57fe5b9060005260206000200160009054906101000a900473ffffffffffffffffffffffffffffffffffffffff1690506000600460008373ffffffffffffffffffffffffffffffffffffffff1673ffffffffffffffffffffffffffffffffffffffff16815260200190815260200160002054905060008111156106ca57600260009054906101000a900473ffffffffffffffffffffffffffffffffffffffff1673ffffffffffffffffffffffffffffffffffffffff1663a9059cbb83836040518363ffffffff1660e01b8152600401808373ffffffffffffffffffffffffffffffffffffffff1673ffffffffffffffffffffffffffffffffffffffff16815260200182815260200192505050602060405180830381600087803b15801561068d57600080fd5b505af11580156106a1573d6000803e3d6000fd5b505050506040513d60208110156106b757600080fd5b8101908080519060200190929190505050505b5050808060010191505061054e565b50565b60066020528060005260406000206000915054906101000a900460ff1681565b6007818154811061070957fe5b906000526020600020016000915054906101000a900473ffffffffffffffffffffffffffffffffffffffff1681565b600081116107ae576040517f08c379a00000000000000000000000000000000000000000000000000000000081526004018080602001828103825260128152602001807f416d6f756e742063616e6e6f742062652030000000000000000000000000000081525060200191505060405180910390fd5b6000339050600360009054906101000a900473ffffffffffffffffffffffffffffffffffffffff1673ffffffffffffffffffffffffffffffffffffffff166323b872dd8230856040518463ffffffff1660e01b8152600401808473ffffffffffffffffffffffffffffffffffffffff1673ffffffffffffffffffffffffffffffffffffffff1681526020018373ffffffffffffffffffffffffffffffffffffffff1673ffffffffffffffffffffffffffffffffffffffff1681526020018281526020019350505050602060405180830381600087803b15801561089057600080fd5b505af11580156108a4573d6000803e3d6000fd5b505050506040513d60208110156108ba57600080fd5b81019080805190602001909291905050505081600460008373ffffffffffffffffffffffffffffffffffffffff1673ffffffffffffffffffffffffffffffffffffffff16815260200190815260200160002060008282540192505081905550600560008273ffffffffffffffffffffffffffffffffffffffff1673ffffffffffffffffffffffffffffffffffffffff16815260200190815260200160002060009054906101000a900460ff166109d15760078190806001815401808255809150509060018203906000526020600020016000909192909190916101000a81548173ffffffffffffffffffffffffffffffffffffffff021916908373ffffffffffffffffffffffffffffffffffffffff160217905550505b6001600660008373ffffffffffffffffffffffffffffffffffffffff1673ffffffffffffffffffffffffffffffffffffffff16815260200190815260200160002060006101000a81548160ff0219169083151502179055506001600560008373ffffffffffffffffffffffffffffffffffffffff1673ffffffffffffffffffffffffffffffffffffffff16815260200190815260200160002060006101000a81548160ff0219169083151502179055505050565b60003390506000600460008373ffffffffffffffffffffffffffffffffffffffff1673ffffffffffffffffffffffffffffffffffffffff16815260200190815260200160002054905060008111610b44576040517f08c379a000000000000000000000000000000000000000000000000000000000815260040180806020018281038252601b8152602001807f5374616b696e672042616c616e63652063616e6e6f742062652030000000000081525060200191505060405180910390fd5b600360009054906101000a900473ffffffffffffffffffffffffffffffffffffffff1673ffffffffffffffffffffffffffffffffffffffff1663a9059cbb83836040518363ffffffff1660e01b8152600401808373ffffffffffffffffffffffffffffffffffffffff1673ffffffffffffffffffffffffffffffffffffffff16815260200182815260200192505050602060405180830381600087803b158015610bed57600080fd5b505af1158015610c01573d6000803e3d6000fd5b505050506040513d6020811015610c1757600080fd5b8101908080519060200190929190505050506000600460008473ffffffffffffffffffffffffffffffffffffffff1673ffffffffffffffffffffffffffffffffffffffff168152602001908152602001600020819055506000600660008473ffffffffffffffffffffffffffffffffffffffff1673ffffffffffffffffffffffffffffffffffffffff16815260200190815260200160002060006101000a81548160ff0219169083151502179055505050565b600360009054906101000a900473ffffffffffffffffffffffffffffffffffffffff1681565b60056020528060005260406000206000915054906101000a900460ff1681565b600160009054906101000a900473ffffffffffffffffffffffffffffffffffffffff1681565b600260009054906101000a900473ffffffffffffffffffffffffffffffffffffffff168156fea265627a7a723158202862d81b4b2d8fef9755f7793209e6c9017f28b230997ed27848b4de5b842e9664736f6c63430005100032",
  "source": "pragma solidity ^0.5.0;\r\n\r\nimport \"./DaiToken.sol\";\r\nimport \"./DAppToken.sol\";\r\n\r\n/* Naming: \"Farm\" because of Term \"Yield Farming\" */\r\ncontract TokenFarm {\r\n    string public name = \"DApp Token Farm\";\r\n    address public deployer;\r\n    DAppToken public dAppToken;\r\n    DaiToken public daiToken;\r\n\r\n    /* Staking Balance for each Investor */\r\n    mapping(address => uint) public stakingBalance;\r\n    /* Indicator if Investor has staked */\r\n    mapping(address => bool) public hasStaked;\r\n    /* Indicator if Investor is staking */\r\n    mapping(address => bool) public isStaking;\r\n\r\n    /* All Investors who ever has staked in these Smart Contract */\r\n    address[] public stakingInvestors;\r\n\r\n    /*\r\n     Convention:\r\n       - Local Variable (like Arguments that are passed) have an Underscore\r\n       - State Variable (like Variables in a Function) have no Underscore\r\n    */\r\n    constructor(DaiToken _daiToken, DAppToken _dAppToken) public {\r\n        /* Smart Contract DAppToken and DaiToken have to been deployed before deploying these Smart Contract */\r\n        daiToken = _daiToken;\r\n        dAppToken = _dAppToken;\r\n        deployer = msg.sender;\r\n    }\r\n\r\n    /* Staking / Depositing Tokens */\r\n    function stakeTokens(uint _amount) public {\r\n        /* Requirement: Amount greater than 0*/\r\n        require(_amount > 0, \"Amount cannot be 0\");\r\n        address investor = msg.sender;\r\n        /* Transferring Mock DAI Tokens from Investor to this Smart Contract for Staking */\r\n        daiToken.transferFrom(investor, address(this), _amount);\r\n        /* Updating the Staking Balance of these Investor */\r\n        stakingBalance[investor] += _amount;\r\n        /* Checking if Investor is not already inside the List of Investors */\r\n        if (!hasStaked[investor]) {\r\n            /* Add Investor into List of Investors who ever have staked into these Smart Contract */\r\n            stakingInvestors.push(investor);\r\n        }\r\n        /* Set Indicator that Investor is staking into these Smart Contract */\r\n        isStaking[investor] = true;\r\n        /* Set Indicator that Investor has staked into these Smart Contract */\r\n        hasStaked[investor] = true;\r\n    }\r\n\r\n    /* Issuing Tokens */\r\n    function issueTokens() public {\r\n        /* Requirement: Only Deployer of these Smart Contract can issue Tokens */\r\n        require(msg.sender == deployer, \"Caller must be the Deployer\");\r\n\r\n        /* Getting each Investor in these Smart Contract */\r\n        for (uint i = 0; i < stakingInvestors.length; i++) {\r\n            address recipient = stakingInvestors[i];\r\n            /* A One-to-One Converting from Mock DAI Token to DApp Token */\r\n            uint balance = stakingBalance[recipient];\r\n            if(balance > 0) {\r\n                /* Transferring the Investor the same Amount of DApp Token as he invested in Mock DAI Token */\r\n                dAppToken.transfer(recipient, balance);\r\n            }\r\n        }\r\n    }\r\n\r\n    /* Un-staking / withdrawing Tokens */\r\n    function unstakeTokens() public {\r\n        address investor = msg.sender;\r\n        /* Fetching Staking Balance from Investor */\r\n        uint balance = stakingBalance[investor];\r\n\r\n        /* Requirement: Amount has to be greater than 0 */\r\n        require(balance > 0, \"Staking Balance cannot be 0\");\r\n\r\n        /* Transferring Mock DAI Tokens to this Smart Contract for Staking */\r\n        daiToken.transfer(investor, balance);\r\n\r\n        /* Resetting the Staking Balance */\r\n        stakingBalance[investor] = 0;\r\n\r\n        /* Updating the Staking Status */\r\n        isStaking[investor] = false;\r\n    }\r\n\r\n}\r\n",
  "sourcePath": "C:/Users/stein/Downloads/SolidityStakingCustomCoinWeb3ReactJS/src/contracts/TokenFarm.sol",
  "compiler": {
    "name": "solc",
    "version": "0.5.16+commit.9c3226ce.Emscripten.clang"
  },
  "schemaVersion": "3.4.1",
  "updatedAt": "2021-06-18T08:19:38.653Z",
  "networkType": "ethereum",
  "devdoc": {
    "methods": {}
  },
  "userdoc": {
    "methods": {}
  }
}